{
  "contractName": "Nominate",
  "abi": [
    {
      "inputs": [],
      "stateMutability": "nonpayable",
      "type": "constructor"
    },
    {
      "anonymous": false,
      "inputs": [
        {
          "indexed": true,
          "internalType": "address",
          "name": "_to",
          "type": "address"
        },
        {
          "indexed": true,
          "internalType": "address",
          "name": "_contract",
          "type": "address"
        },
        {
          "indexed": false,
          "internalType": "uint256",
          "name": "_value",
          "type": "uint256"
        },
        {
          "indexed": false,
          "internalType": "uint256",
          "name": "_awardId",
          "type": "uint256"
        }
      ],
      "name": "Award_Deactivated",
      "type": "event"
    },
    {
      "anonymous": false,
      "inputs": [
        {
          "indexed": true,
          "internalType": "address",
          "name": "_to",
          "type": "address"
        },
        {
          "indexed": true,
          "internalType": "address",
          "name": "_contract",
          "type": "address"
        },
        {
          "indexed": false,
          "internalType": "uint256",
          "name": "_value",
          "type": "uint256"
        },
        {
          "indexed": false,
          "internalType": "uint256",
          "name": "_awardId",
          "type": "uint256"
        }
      ],
      "name": "Award_Distributed",
      "type": "event"
    },
    {
      "anonymous": false,
      "inputs": [
        {
          "indexed": true,
          "internalType": "address",
          "name": "_to",
          "type": "address"
        },
        {
          "indexed": true,
          "internalType": "address",
          "name": "_contract",
          "type": "address"
        },
        {
          "indexed": false,
          "internalType": "uint256",
          "name": "_value",
          "type": "uint256"
        },
        {
          "indexed": false,
          "internalType": "uint256",
          "name": "_awardId",
          "type": "uint256"
        }
      ],
      "name": "Award_Goal_Reached",
      "type": "event"
    },
    {
      "anonymous": false,
      "inputs": [
        {
          "indexed": true,
          "internalType": "address",
          "name": "_from",
          "type": "address"
        },
        {
          "indexed": true,
          "internalType": "address",
          "name": "_contract",
          "type": "address"
        },
        {
          "indexed": false,
          "internalType": "uint256",
          "name": "_value",
          "type": "uint256"
        },
        {
          "indexed": false,
          "internalType": "uint256",
          "name": "_awardId",
          "type": "uint256"
        }
      ],
      "name": "Emit_Funds_Donated",
      "type": "event"
    },
    {
      "anonymous": false,
      "inputs": [
        {
          "indexed": true,
          "internalType": "address",
          "name": "_newRecipient",
          "type": "address"
        },
        {
          "indexed": false,
          "internalType": "uint256",
          "name": "_awardId",
          "type": "uint256"
        }
      ],
      "name": "Set_Recipient",
      "type": "event"
    },
    {
      "stateMutability": "nonpayable",
      "type": "fallback"
    },
    {
      "inputs": [
        {
          "internalType": "uint256",
          "name": "",
          "type": "uint256"
        }
      ],
      "name": "allAwards",
      "outputs": [
        {
          "internalType": "address payable",
          "name": "recipientAddress",
          "type": "address"
        },
        {
          "internalType": "uint256",
          "name": "donationLimit",
          "type": "uint256"
        },
        {
          "internalType": "uint256",
          "name": "donationTotal",
          "type": "uint256"
        },
        {
          "internalType": "address",
          "name": "nominatorAddress",
          "type": "address"
        },
        {
          "internalType": "uint256",
          "name": "expires",
          "type": "uint256"
        },
        {
          "internalType": "bool",
          "name": "active",
          "type": "bool"
        }
      ],
      "stateMutability": "view",
      "type": "function",
      "constant": true
    },
    {
      "inputs": [],
      "name": "owner",
      "outputs": [
        {
          "internalType": "address",
          "name": "",
          "type": "address"
        }
      ],
      "stateMutability": "view",
      "type": "function",
      "constant": true
    },
    {
      "stateMutability": "payable",
      "type": "receive",
      "payable": true
    },
    {
      "inputs": [
        {
          "internalType": "address",
          "name": "_newRelayerAddress",
          "type": "address"
        }
      ],
      "name": "setRelayerAddress",
      "outputs": [],
      "stateMutability": "nonpayable",
      "type": "function"
    },
    {
      "inputs": [
        {
          "internalType": "uint256",
          "name": "_awardId",
          "type": "uint256"
        }
      ],
      "name": "donateFunds",
      "outputs": [],
      "stateMutability": "payable",
      "type": "function",
      "payable": true
    },
    {
      "inputs": [
        {
          "internalType": "uint256",
          "name": "_awardId",
          "type": "uint256"
        },
        {
          "internalType": "address payable",
          "name": "_recipientAddress",
          "type": "address"
        },
        {
          "internalType": "uint256",
          "name": "_donationLimit",
          "type": "uint256"
        }
      ],
      "name": "startAwardAndDonate",
      "outputs": [],
      "stateMutability": "payable",
      "type": "function",
      "payable": true
    },
    {
      "inputs": [
        {
          "internalType": "uint256",
          "name": "_awardId",
          "type": "uint256"
        },
        {
          "internalType": "address payable",
          "name": "_recipientAddress",
          "type": "address"
        }
      ],
      "name": "setRecipient",
      "outputs": [],
      "stateMutability": "nonpayable",
      "type": "function"
    },
    {
      "inputs": [
        {
          "internalType": "uint256[]",
          "name": "_awardIdList",
          "type": "uint256[]"
        },
        {
          "internalType": "address payable",
          "name": "_recipientAddress",
          "type": "address"
        }
      ],
      "name": "setRecipients",
      "outputs": [],
      "stateMutability": "nonpayable",
      "type": "function"
    },
    {
      "inputs": [
        {
          "internalType": "uint256",
          "name": "_awardId",
          "type": "uint256"
        }
      ],
      "name": "expireAward",
      "outputs": [],
      "stateMutability": "nonpayable",
      "type": "function"
    },
    {
      "inputs": [
        {
          "internalType": "uint256",
          "name": "_awardId",
          "type": "uint256"
        }
      ],
      "name": "deactivateAward",
      "outputs": [],
      "stateMutability": "nonpayable",
      "type": "function"
    },
    {
      "inputs": [],
      "name": "balanceOfContract",
      "outputs": [
        {
          "internalType": "uint256",
          "name": "",
          "type": "uint256"
        }
      ],
      "stateMutability": "view",
      "type": "function",
      "constant": true
    }
  ],
  "bytecode": "0x608060405234801561001057600080fd5b50336000806101000a81548173ffffffffffffffffffffffffffffffffffffffff021916908373ffffffffffffffffffffffffffffffffffffffff160217905550600e600060146101000a81548160ff021916908360ff160217905550737714e9182799ce2f92b26e70c9cd55cd1b3c1d38600160006101000a81548173ffffffffffffffffffffffffffffffffffffffff021916908373ffffffffffffffffffffffffffffffffffffffff16021790555061152a806100d16000396000f3fe6080604052600436106100955760003560e01c8063d32521a011610059578063d32521a01461030b578063d384a0d714610339578063dd6e7b0c1461038a578063e6c7c456146103e5578063fb65c4a1146104105761009c565b806333fa7ab6146101175780635006002d146101525780636eccc04a146101aa5780638da5cb5b146101e5578063a478ff17146102265761009c565b3661009c57005b3480156100a857600080fd5b506040517f08c379a000000000000000000000000000000000000000000000000000000000815260040180806020018281038252600e8152602001807f6e6f7420616374696f6e61626c6500000000000000000000000000000000000081525060200191505060405180910390fd5b34801561012357600080fd5b506101506004803603602081101561013a57600080fd5b81019080803590602001909291905050506104b0565b005b6101a86004803603606081101561016857600080fd5b8101908080359060200190929190803573ffffffffffffffffffffffffffffffffffffffff169060200190929190803590602001909291905050506107a1565b005b3480156101b657600080fd5b506101e3600480360360208110156101cd57600080fd5b810190808035906020019092919050505061096f565b005b3480156101f157600080fd5b506101fa610a13565b604051808273ffffffffffffffffffffffffffffffffffffffff16815260200191505060405180910390f35b34801561023257600080fd5b506103096004803603604081101561024957600080fd5b810190808035906020019064010000000081111561026657600080fd5b82018360208201111561027857600080fd5b8035906020019184602083028401116401000000008311171561029a57600080fd5b919080806020026020016040519081016040528093929190818152602001838360200280828437600081840152601f19601f820116905080830192505050505050509192919290803573ffffffffffffffffffffffffffffffffffffffff169060200190929190505050610a37565b005b6103376004803603602081101561032157600080fd5b8101908080359060200190929190505050610ba0565b005b34801561034557600080fd5b506103886004803603602081101561035c57600080fd5b81019080803573ffffffffffffffffffffffffffffffffffffffff169060200190929190505050610e1f565b005b34801561039657600080fd5b506103e3600480360360408110156103ad57600080fd5b8101908080359060200190929190803573ffffffffffffffffffffffffffffffffffffffff169060200190929190505050610f07565b005b3480156103f157600080fd5b506103fa6110ec565b6040518082815260200191505060405180910390f35b34801561041c57600080fd5b506104496004803603602081101561043357600080fd5b81019080803590602001909291905050506110f4565b604051808773ffffffffffffffffffffffffffffffffffffffff1681526020018681526020018581526020018473ffffffffffffffffffffffffffffffffffffffff1681526020018381526020018215158152602001965050505050505060405180910390f35b806002600082815260200190815260200160002060050160009054906101000a900460ff16610547576040517f08c379a00000000000000000000000000000000000000000000000000000000081526004018080602001828103825260138152602001807f6177617264206973206e6f74206163746976650000000000000000000000000081525060200191505060405180910390fd5b600060026000848152602001908152602001600020600201549050600060026000858152602001908152602001600020600201819055506002600084815260200190815260200160002060000160009054906101000a900473ffffffffffffffffffffffffffffffffffffffff1673ffffffffffffffffffffffffffffffffffffffff166108fc829081150290604051600060405180830381858888f193505050501580156105fa573d6000803e3d6000fd5b503073ffffffffffffffffffffffffffffffffffffffff166002600085815260200190815260200160002060000160009054906101000a900473ffffffffffffffffffffffffffffffffffffffff1673ffffffffffffffffffffffffffffffffffffffff167f97952cd78c85fdf150733942d64c5166b087895699561b6ad16aad7e43cb3b9c600260008781526020019081526020016000206002015486604051808381526020018281526020019250505060405180910390a360006002600085815260200190815260200160002060050160006101000a81548160ff0219169083151502179055503073ffffffffffffffffffffffffffffffffffffffff166002600085815260200190815260200160002060000160009054906101000a900473ffffffffffffffffffffffffffffffffffffffff1673ffffffffffffffffffffffffffffffffffffffff167fac889b2798cd0d715170e17a255a4c2338c280087d48e1de19bea278373c5da2600260008781526020019081526020016000206002015486604051808381526020018281526020019250505060405180910390a3505050565b600034116107fa576040517f08c379a000000000000000000000000000000000000000000000000000000000815260040180806020018281038252602c8152602001806114c9602c913960400191505060405180910390fd5b600015156002600085815260200190815260200160002060050160009054906101000a900460ff1615151480156108935750600073ffffffffffffffffffffffffffffffffffffffff166002600085815260200190815260200160002060000160009054906101000a900473ffffffffffffffffffffffffffffffffffffffff1673ffffffffffffffffffffffffffffffffffffffff16145b6108e8576040517f08c379a00000000000000000000000000000000000000000000000000000000081526004018080602001828103825260378152602001806114096037913960400191505060405180910390fd5b6108f48333848461117d565b3073ffffffffffffffffffffffffffffffffffffffff163373ffffffffffffffffffffffffffffffffffffffff167ff417b7482d24c4f3223dc0be19f69ae0f3f0cc6b37daaf6667c86d4272ca1e9e3486604051808381526020018281526020019250505060405180910390a361096a836112e5565b505050565b806002600082815260200190815260200160002060050160009054906101000a900460ff16610a06576040517f08c379a00000000000000000000000000000000000000000000000000000000081526004018080602001828103825260138152602001807f6177617264206973206e6f74206163746976650000000000000000000000000081525060200191505060405180910390fd5b610a0f826104b0565b5050565b60008054906101000a900473ffffffffffffffffffffffffffffffffffffffff1681565b600160009054906101000a900473ffffffffffffffffffffffffffffffffffffffff1673ffffffffffffffffffffffffffffffffffffffff163373ffffffffffffffffffffffffffffffffffffffff1614610add576040517f08c379a000000000000000000000000000000000000000000000000000000000815260040180806020018281038252603d815260200180611440603d913960400191505060405180910390fd5b60005b8251811015610b9b5760026000848381518110610af957fe5b6020026020010151815260200190815260200160002060050160009054906101000a900460ff1615610b8e578160026000858481518110610b3657fe5b6020026020010151815260200190815260200160002060000160006101000a81548173ffffffffffffffffffffffffffffffffffffffff021916908373ffffffffffffffffffffffffffffffffffffffff1602179055505b8080600101915050610ae0565b505050565b60003411610bf9576040517f08c379a000000000000000000000000000000000000000000000000000000000815260040180806020018281038252602c8152602001806114c9602c913960400191505060405180910390fd5b806002600082815260200190815260200160002060050160009054906101000a900460ff16610c90576040517f08c379a00000000000000000000000000000000000000000000000000000000081526004018080602001828103825260138152602001807f6177617264206973206e6f74206163746976650000000000000000000000000081525060200191505060405180910390fd5b6002600083815260200190815260200160002060030160009054906101000a900473ffffffffffffffffffffffffffffffffffffffff1673ffffffffffffffffffffffffffffffffffffffff166002600084815260200190815260200160002060000160009054906101000a900473ffffffffffffffffffffffffffffffffffffffff1673ffffffffffffffffffffffffffffffffffffffff161415610d81576040517f08c379a000000000000000000000000000000000000000000000000000000000815260040180806020018281038252604c81526020018061147d604c913960600191505060405180910390fd5b3460026000848152602001908152602001600020600201600082825401925050819055503073ffffffffffffffffffffffffffffffffffffffff163373ffffffffffffffffffffffffffffffffffffffff167ff417b7482d24c4f3223dc0be19f69ae0f3f0cc6b37daaf6667c86d4272ca1e9e3485604051808381526020018281526020019250505060405180910390a3610e1b826112e5565b5050565b60008054906101000a900473ffffffffffffffffffffffffffffffffffffffff1673ffffffffffffffffffffffffffffffffffffffff163373ffffffffffffffffffffffffffffffffffffffff1614610ec3576040517f08c379a000000000000000000000000000000000000000000000000000000000815260040180806020018281038252602a8152602001806113df602a913960400191505060405180910390fd5b80600160006101000a81548173ffffffffffffffffffffffffffffffffffffffff021916908373ffffffffffffffffffffffffffffffffffffffff16021790555050565b816002600082815260200190815260200160002060050160009054906101000a900460ff16610f9e576040517f08c379a00000000000000000000000000000000000000000000000000000000081526004018080602001828103825260138152602001807f6177617264206973206e6f74206163746976650000000000000000000000000081525060200191505060405180910390fd5b600160009054906101000a900473ffffffffffffffffffffffffffffffffffffffff1673ffffffffffffffffffffffffffffffffffffffff163373ffffffffffffffffffffffffffffffffffffffff1614611044576040517f08c379a000000000000000000000000000000000000000000000000000000000815260040180806020018281038252603d815260200180611440603d913960400191505060405180910390fd5b816002600085815260200190815260200160002060000160006101000a81548173ffffffffffffffffffffffffffffffffffffffff021916908373ffffffffffffffffffffffffffffffffffffffff1602179055508173ffffffffffffffffffffffffffffffffffffffff167f64c53ed5aa234cc737528082e2138f844dfbdc9309b62a69614fff339bb81d50846040518082815260200191505060405180910390a2505050565b600047905090565b60026020528060005260406000206000915090508060000160009054906101000a900473ffffffffffffffffffffffffffffffffffffffff16908060010154908060020154908060030160009054906101000a900473ffffffffffffffffffffffffffffffffffffffff16908060040154908060050160009054906101000a900460ff16905086565b60006040518060c001604052808473ffffffffffffffffffffffffffffffffffffffff1681526020018381526020013481526020018573ffffffffffffffffffffffffffffffffffffffff16815260200162015180600060149054906101000a900460ff1660ff160262ffffff1642018152602001600115158152509050806002600087815260200190815260200160002060008201518160000160006101000a81548173ffffffffffffffffffffffffffffffffffffffff021916908373ffffffffffffffffffffffffffffffffffffffff160217905550602082015181600101556040820151816002015560608201518160030160006101000a81548173ffffffffffffffffffffffffffffffffffffffff021916908373ffffffffffffffffffffffffffffffffffffffff1602179055506080820151816004015560a08201518160050160006101000a81548160ff0219169083151502179055509050505050505050565b60026000828152602001908152602001600020600201546002600083815260200190815260200160002060010154116113db573073ffffffffffffffffffffffffffffffffffffffff166002600083815260200190815260200160002060000160009054906101000a900473ffffffffffffffffffffffffffffffffffffffff1673ffffffffffffffffffffffffffffffffffffffff167fac3c955477f20f90987c3c2a8612c4ae1ceab685b94804e397ce0261ca546025600260008581526020019081526020016000206002015484604051808381526020018281526020019250505060405180910390a36113da816104b0565b5b5056fe6f6e6c7920746865206f776e6572206d617920736574207468652072656c617965722061646472657373746869732061776172642068617320616c7265616479206265656e20616464656420746f2074686520736d61727420636f6e74726163746d73672e73656e646572206973206e6f74207468652064657369676e617465642073656e64657220666f722073657474696e6720726563697069656e74746869732061776172642063616e206e6f742061636365707420616e7920646f6e6174696f6e7320756e74696c20726563697069656e74206164647265737320686173206265656e20736574706c6561736520646f6e61746520616e20616d6f756e742067726561746572207468616e2030206574686572a2646970667358221220b8a006cc7db793fe61a70188a0968e2c2e34e815bac2a879afc191996052778264736f6c63430007060033",
  "immutableReferences": {},
  "source": "// SPDX-License-Identifier: MIT\npragma solidity >=0.7.0 <0.8.0;\n\n/**\n* @title Storage\n* @dev Store & retrieve value in a variable\n* BASE UNITS on ETHEREUM BC: wei\n* onlyOwner safety check - if we fund the recipient address setting, then we can set ourselves as the only ppl to modify the smart contract (securing our smart contract via admin access)\n* Methods/modifiers needed --------------------------------------------------------------------------------\n* set recipient address\n* check if recipient address is default or has been set\n* platform pays gas fee WHEN RECIPIENT SETS ADDRESS\n*\n* v14 --------------------------------------------------------------------------------------------\n* ToDo --------------------------------------------------------------------------------------------\n* check for sufficient balance on SC before deactivating an award (before distributing funds)\n\n*/\ncontract Nominate {\n   address public owner;\n   uint8 awardDurationDays;\n   address relayerAddress;\n\n   constructor() {\n      owner = msg.sender;\n      awardDurationDays = 14;\n      relayerAddress = 0x7714E9182799cE2f92B26E70c9CD55cD1b3c1d38;\n   }\n\n   //**struct are like models in dbs, we can make instances of the Award Struct each time a person is nominated\n   struct Award {\n      address payable recipientAddress;\n      uint donationLimit;\n      uint donationTotal;\n      address nominatorAddress;\n      uint expires;\n      bool active;\n   }\n\n   //**all awards will be our data structure. it is an object with they key as the award id, and the information of the award struct as the pair in key-pair\n  mapping(uint => Award) public allAwards;\n  function setRelayerAddress (address _newRelayerAddress) public onlyOwner() {\n      relayerAddress = _newRelayerAddress;\n  }\n  function donateFunds (uint _awardId) public payable aboveMinimum() awardExist(_awardId) {\n      require(allAwards[_awardId].recipientAddress != allAwards[_awardId].nominatorAddress, 'this award can not accept any donations until recipient address has been set');\n      // add donation amount to award\n      allAwards[_awardId].donationTotal += msg.value;\n\n      // log donation\n      emit Emit_Funds_Donated(msg.sender, address(this), msg.value, _awardId);\n\n      // check if award donations has reached amount limit\n      checkLimit(_awardId);\n  }\n  //Notes--This function is invoked only if we are creating a new award (nominator makes a nomination)\n  function startAwardAndDonate(uint _awardId, address payable _recipientAddress, uint _donationLimit) public payable aboveMinimum() {\n      require(allAwards[_awardId].active == false && allAwards[_awardId].recipientAddress == address(0), 'this award has already been added to the smart contract');\n\n      // createAwardStruct\n      //createAwardStruct(_awardId, _nominatorAddress, _recipientAddress);\n      createAwardStruct(_awardId, msg.sender, _recipientAddress, _donationLimit);\n\n      // log donation\n      emit Emit_Funds_Donated(msg.sender, address(this), msg.value, _awardId);\n\n      // check if award donations has reached amount limit\n      checkLimit(_awardId);\n  }\n  //Notes--This function is invoked to set the award winners address\n  function setRecipient(uint _awardId, address payable _recipientAddress) public awardExist(_awardId) {\n      require(msg.sender == relayerAddress, 'msg.sender is not the designated sender for setting recipient');\n      //check to see if award id in the object if not reject donation….I.e. person tries to claim award after its expired\n      //modifier to check if there is an award\n      //set the award\n      allAwards[_awardId].recipientAddress = _recipientAddress;\n      //allAwards[_awardId].recipientAddress = msg.sender; // attached recipientAddress to .send()\n      // allAwards[_awardId].donationTotal += msg.value; // would an excess amount be sent to pay for gas fee?\n      emit Set_Recipient(_recipientAddress, _awardId);\n  }\n  function setRecipients(uint[] memory _awardIdList, address payable _recipientAddress) public {\n      require(msg.sender == relayerAddress, 'msg.sender is not the designated sender for setting recipient');\n      for (uint i = 0; i < _awardIdList.length; i++) {\n          if (allAwards[_awardIdList[i]].active) {\n              allAwards[_awardIdList[i]].recipientAddress = _recipientAddress;\n          }\n      }\n  }\n  //claim reward idea?-when time runs out user logs in and presses claim my award-might\n  // expiration check made on app\n  // check for expiration on SC before invoking expireAward?\n  function expireAward(uint _awardId) public awardExist(_awardId) {\n      // onlyOwner modifier?\n      deactivateAward(_awardId);\n  }\n  // Helpper Functions -----------------------------------------------------------------------------------------------------\n  function checkLimit(uint _awardId) internal {\n      if (allAwards[_awardId].donationLimit <= allAwards[_awardId].donationTotal) {\n          // emit goal reached\n          emit Award_Goal_Reached(allAwards[_awardId].recipientAddress, address(this), allAwards[_awardId].donationTotal, _awardId);\n          // end lifecycle of award\n          deactivateAward(_awardId);\n      }\n  }\n  function deactivateAward(uint _awardId) public awardExist(_awardId) {\n      //donationTotal back to 0\n      uint amount = allAwards[_awardId].donationTotal;\n      allAwards[_awardId].donationTotal = 0;\n\n      // execute distribution of donations (amount sent to recipient == amount donated to respective award)\n      allAwards[_awardId].recipientAddress.transfer(amount);\n      // emit distribution\n      emit Award_Distributed(allAwards[_awardId].recipientAddress, address(this), allAwards[_awardId].donationTotal, _awardId);\n\n      // set struct property\n      allAwards[_awardId].active = false;\n      // emit award deactivated\n      emit Award_Deactivated(allAwards[_awardId].recipientAddress, address(this), allAwards[_awardId].donationTotal, _awardId);\n  }\n  function createAwardStruct(uint _awardId, address _nominatorAddress, address payable _recipientAddress, uint _donationLimit ) internal {\n      Award memory newAward = Award ({\n          recipientAddress: _recipientAddress,\n          donationLimit: _donationLimit,\n          donationTotal: msg.value,\n          nominatorAddress: _nominatorAddress,\n          expires: block.timestamp + awardDurationDays * 1 days,\n          active: true\n\n      });\n      allAwards[_awardId] = newAward;\n  }\n   function balanceOfContract() external view returns(uint) {\n       return address(this).balance;\n   }\n   receive() external payable {}\n   fallback() external {\n       revert('not actionable');\n   }\n  // Modifiers -----------------------------------------------------------------------------------------------------\n\n  //used by expireAward as a safety check to make sure that contract is expired before paying the recipient\n  modifier timeCheck (uint _awardId) {\n    require(block.timestamp > allAwards[_awardId].expires, \"this contract is not expired and payout will not happen\");\n    _;\n  }\n  modifier aboveMinimum () {\n      require( msg.value > 0 ether, \"please donate an amount greater than 0 ether\");\n      _;\n  }\n  // does award exist?\n  modifier awardExist (uint _awardId) {\n      require(allAwards[_awardId].active, 'award is not active');\n      _;\n  }\n  modifier onlyOwner () {\n      require( msg.sender == owner, 'only the owner may set the relayer address');\n      _;\n  }\n\n  // Events Emitters -----------------------------------------------------------------------------------------------------\n  // the \"index\" keyword lets the log be filtered by those parameters\n  event Emit_Funds_Donated (\n      address indexed _from,\n      address indexed _contract,\n      uint _value,\n      uint _awardId\n  );\n  event Award_Goal_Reached (\n      address indexed _to,\n      address indexed _contract,\n      uint _value,\n      uint _awardId\n  );\n  event Award_Deactivated (\n      address indexed _to,\n      address indexed _contract,\n      uint _value,\n      uint _awardId\n  );\n  event Award_Distributed (\n      address indexed _to,\n      address indexed _contract,\n      uint _value,\n      uint _awardId\n  );\n  event Set_Recipient (\n      address indexed _newRecipient,\n      uint _awardId\n  );\n}\n",
  "sourcePath": "/Users/viralpatel/CapstoneProject/capstone/contracts/Nominate.sol",
  "compiler": {
    "name": "solc",
    "version": "0.7.6+commit.7338295f.Emscripten.clang"
  },
  "schemaVersion": "3.3.4",
  "updatedAt": "2021-04-05T00:25:12.306Z",
  "networkType": "ethereum",
  "devdoc": {
    "details": "Store & retrieve value in a variable BASE UNITS on ETHEREUM BC: wei onlyOwner safety check - if we fund the recipient address setting, then we can set ourselves as the only ppl to modify the smart contract (securing our smart contract via admin access) Methods/modifiers needed -------------------------------------------------------------------------------- set recipient address check if recipient address is default or has been set platform pays gas fee WHEN RECIPIENT SETS ADDRESS v14 -------------------------------------------------------------------------------------------- ToDo -------------------------------------------------------------------------------------------- check for sufficient balance on SC before deactivating an award (before distributing funds)",
    "kind": "dev",
    "methods": {},
    "title": "Storage",
    "version": 1
  },
  "userdoc": {
    "kind": "user",
    "methods": {},
    "version": 1
  }
}