{
  "contractName": "Nominate",
  "abi": [
    {
      "inputs": [],
      "stateMutability": "nonpayable",
      "type": "constructor"
    },
    {
      "anonymous": false,
      "inputs": [
        {
          "indexed": true,
          "internalType": "address",
          "name": "_to",
          "type": "address"
        },
        {
          "indexed": true,
          "internalType": "address",
          "name": "_contract",
          "type": "address"
        },
        {
          "indexed": false,
          "internalType": "uint256",
          "name": "_value",
          "type": "uint256"
        },
        {
          "indexed": false,
          "internalType": "uint256",
          "name": "_awardId",
          "type": "uint256"
        }
      ],
      "name": "Award_Deactivated",
      "type": "event"
    },
    {
      "anonymous": false,
      "inputs": [
        {
          "indexed": true,
          "internalType": "address",
          "name": "_to",
          "type": "address"
        },
        {
          "indexed": true,
          "internalType": "address",
          "name": "_contract",
          "type": "address"
        },
        {
          "indexed": false,
          "internalType": "uint256",
          "name": "_value",
          "type": "uint256"
        },
        {
          "indexed": false,
          "internalType": "uint256",
          "name": "_awardId",
          "type": "uint256"
        }
      ],
      "name": "Award_Distributed",
      "type": "event"
    },
    {
      "anonymous": false,
      "inputs": [
        {
          "indexed": true,
          "internalType": "address",
          "name": "_to",
          "type": "address"
        },
        {
          "indexed": true,
          "internalType": "address",
          "name": "_contract",
          "type": "address"
        },
        {
          "indexed": false,
          "internalType": "uint256",
          "name": "_value",
          "type": "uint256"
        },
        {
          "indexed": false,
          "internalType": "uint256",
          "name": "_awardId",
          "type": "uint256"
        }
      ],
      "name": "Award_Goal_Reached",
      "type": "event"
    },
    {
      "anonymous": false,
      "inputs": [
        {
          "indexed": true,
          "internalType": "address",
          "name": "_from",
          "type": "address"
        },
        {
          "indexed": true,
          "internalType": "address",
          "name": "_contract",
          "type": "address"
        },
        {
          "indexed": false,
          "internalType": "uint256",
          "name": "_value",
          "type": "uint256"
        },
        {
          "indexed": false,
          "internalType": "uint256",
          "name": "_awardId",
          "type": "uint256"
        }
      ],
      "name": "Emit_Funds_Donated",
      "type": "event"
    },
    {
      "stateMutability": "nonpayable",
      "type": "fallback"
    },
    {
      "inputs": [
        {
          "internalType": "uint256",
          "name": "",
          "type": "uint256"
        }
      ],
      "name": "allAwards",
      "outputs": [
        {
          "internalType": "address payable",
          "name": "recipientAddress",
          "type": "address"
        },
        {
          "internalType": "uint256",
          "name": "donationLimit",
          "type": "uint256"
        },
        {
          "internalType": "uint256",
          "name": "donationTotal",
          "type": "uint256"
        },
        {
          "internalType": "address",
          "name": "nominatorAddress",
          "type": "address"
        },
        {
          "internalType": "uint256",
          "name": "expires",
          "type": "uint256"
        },
        {
          "internalType": "bool",
          "name": "active",
          "type": "bool"
        }
      ],
      "stateMutability": "view",
      "type": "function",
      "constant": true
    },
    {
      "inputs": [],
      "name": "owner",
      "outputs": [
        {
          "internalType": "address",
          "name": "",
          "type": "address"
        }
      ],
      "stateMutability": "view",
      "type": "function",
      "constant": true
    },
    {
      "stateMutability": "payable",
      "type": "receive",
      "payable": true
    },
    {
      "inputs": [
        {
          "internalType": "uint256",
          "name": "_awardId",
          "type": "uint256"
        }
      ],
      "name": "donateFunds",
      "outputs": [],
      "stateMutability": "payable",
      "type": "function",
      "payable": true
    },
    {
      "inputs": [
        {
          "internalType": "uint256",
          "name": "_awardId",
          "type": "uint256"
        },
        {
          "internalType": "address payable",
          "name": "_recipientAddress",
          "type": "address"
        },
        {
          "internalType": "uint256",
          "name": "_donationLimit",
          "type": "uint256"
        }
      ],
      "name": "startAwardAndDonate",
      "outputs": [],
      "stateMutability": "payable",
      "type": "function",
      "payable": true
    },
    {
      "inputs": [
        {
          "internalType": "uint256",
          "name": "_awardId",
          "type": "uint256"
        },
        {
          "internalType": "address payable",
          "name": "_recipientAddress",
          "type": "address"
        }
      ],
      "name": "setRecipient",
      "outputs": [],
      "stateMutability": "nonpayable",
      "type": "function"
    },
    {
      "inputs": [
        {
          "internalType": "uint256[]",
          "name": "_awardIdList",
          "type": "uint256[]"
        },
        {
          "internalType": "address payable",
          "name": "_recipientAddress",
          "type": "address"
        }
      ],
      "name": "setRecipients",
      "outputs": [],
      "stateMutability": "nonpayable",
      "type": "function"
    },
    {
      "inputs": [
        {
          "internalType": "uint256",
          "name": "_awardId",
          "type": "uint256"
        }
      ],
      "name": "expireAward",
      "outputs": [],
      "stateMutability": "nonpayable",
      "type": "function"
    },
    {
      "inputs": [
        {
          "internalType": "uint256",
          "name": "_awardId",
          "type": "uint256"
        }
      ],
      "name": "deactivateAward",
      "outputs": [],
      "stateMutability": "nonpayable",
      "type": "function"
    },
    {
      "inputs": [],
      "name": "balanceOfContract",
      "outputs": [
        {
          "internalType": "uint256",
          "name": "",
          "type": "uint256"
        }
      ],
      "stateMutability": "view",
      "type": "function",
      "constant": true
    }
  ],
  "bytecode": "0x608060405234801561001057600080fd5b50336000806101000a81548173ffffffffffffffffffffffffffffffffffffffff021916908373ffffffffffffffffffffffffffffffffffffffff160217905550674563918244f400006001819055506611c37937e08000600281905550600e600360006101000a81548160ff021916908360ff1602179055506112a5806100996000396000f3fe60806040526004361061008a5760003560e01c8063a478ff1711610059578063a478ff171461021b578063d32521a014610300578063dd6e7b0c1461032e578063e6c7c45614610389578063fb65c4a1146103b457610091565b806333fa7ab61461010c5780635006002d146101475780636eccc04a1461019f5780638da5cb5b146101da57610091565b3661009157005b34801561009d57600080fd5b506040517f08c379a000000000000000000000000000000000000000000000000000000000815260040180806020018281038252600e8152602001807f6e6f7420616374696f6e61626c6500000000000000000000000000000000000081525060200191505060405180910390fd5b34801561011857600080fd5b506101456004803603602081101561012f57600080fd5b8101908080359060200190929190505050610454565b005b61019d6004803603606081101561015d57600080fd5b8101908080359060200190929190803573ffffffffffffffffffffffffffffffffffffffff16906020019092919080359060200190929190505050610745565b005b3480156101ab57600080fd5b506101d8600480360360208110156101c257600080fd5b8101908080359060200190929190505050610913565b005b3480156101e657600080fd5b506101ef6109b7565b604051808273ffffffffffffffffffffffffffffffffffffffff16815260200191505060405180910390f35b34801561022757600080fd5b506102fe6004803603604081101561023e57600080fd5b810190808035906020019064010000000081111561025b57600080fd5b82018360208201111561026d57600080fd5b8035906020019184602083028401116401000000008311171561028f57600080fd5b919080806020026020016040519081016040528093929190818152602001838360200280828437600081840152601f19601f820116905080830192505050505050509192919290803573ffffffffffffffffffffffffffffffffffffffff1690602001909291905050506109db565b005b61032c6004803603602081101561031657600080fd5b8101908080359060200190929190505050610a9e565b005b34801561033a57600080fd5b506103876004803603604081101561035157600080fd5b8101908080359060200190929190803573ffffffffffffffffffffffffffffffffffffffff169060200190929190505050610da9565b005b34801561039557600080fd5b5061039e610e9a565b6040518082815260200191505060405180910390f35b3480156103c057600080fd5b506103ed600480360360208110156103d757600080fd5b8101908080359060200190929190505050610ea2565b604051808773ffffffffffffffffffffffffffffffffffffffff1681526020018681526020018581526020018473ffffffffffffffffffffffffffffffffffffffff1681526020018381526020018215158152602001965050505050505060405180910390f35b806004600082815260200190815260200160002060050160009054906101000a900460ff166104eb576040517f08c379a00000000000000000000000000000000000000000000000000000000081526004018080602001828103825260138152602001807f6177617264206973206e6f74206163746976650000000000000000000000000081525060200191505060405180910390fd5b600060046000848152602001908152602001600020600201549050600060046000858152602001908152602001600020600201819055506004600084815260200190815260200160002060000160009054906101000a900473ffffffffffffffffffffffffffffffffffffffff1673ffffffffffffffffffffffffffffffffffffffff166108fc829081150290604051600060405180830381858888f1935050505015801561059e573d6000803e3d6000fd5b503073ffffffffffffffffffffffffffffffffffffffff166004600085815260200190815260200160002060000160009054906101000a900473ffffffffffffffffffffffffffffffffffffffff1673ffffffffffffffffffffffffffffffffffffffff167f97952cd78c85fdf150733942d64c5166b087895699561b6ad16aad7e43cb3b9c600460008781526020019081526020016000206002015486604051808381526020018281526020019250505060405180910390a360006004600085815260200190815260200160002060050160006101000a81548160ff0219169083151502179055503073ffffffffffffffffffffffffffffffffffffffff166004600085815260200190815260200160002060000160009054906101000a900473ffffffffffffffffffffffffffffffffffffffff1673ffffffffffffffffffffffffffffffffffffffff167fac889b2798cd0d715170e17a255a4c2338c280087d48e1de19bea278373c5da2600460008781526020019081526020016000206002015486604051808381526020018281526020019250505060405180910390a3505050565b6000341161079e576040517f08c379a000000000000000000000000000000000000000000000000000000000815260040180806020018281038252602c815260200180611215602c913960400191505060405180910390fd5b600015156004600085815260200190815260200160002060050160009054906101000a900460ff1615151480156108375750600073ffffffffffffffffffffffffffffffffffffffff166004600085815260200190815260200160002060000160009054906101000a900473ffffffffffffffffffffffffffffffffffffffff1673ffffffffffffffffffffffffffffffffffffffff16145b61088c576040517f08c379a00000000000000000000000000000000000000000000000000000000081526004018080602001828103825260378152602001806111926037913960400191505060405180910390fd5b61089883338484610f2b565b3073ffffffffffffffffffffffffffffffffffffffff163373ffffffffffffffffffffffffffffffffffffffff167ff417b7482d24c4f3223dc0be19f69ae0f3f0cc6b37daaf6667c86d4272ca1e9e3486604051808381526020018281526020019250505060405180910390a361090e83611093565b505050565b806004600082815260200190815260200160002060050160009054906101000a900460ff166109aa576040517f08c379a00000000000000000000000000000000000000000000000000000000081526004018080602001828103825260138152602001807f6177617264206973206e6f74206163746976650000000000000000000000000081525060200191505060405180910390fd5b6109b382610454565b5050565b60008054906101000a900473ffffffffffffffffffffffffffffffffffffffff1681565b60005b8251811015610a9957600460008483815181106109f757fe5b6020026020010151815260200190815260200160002060050160009054906101000a900460ff1615610a8c578160046000858481518110610a3457fe5b6020026020010151815260200190815260200160002060000160006101000a81548173ffffffffffffffffffffffffffffffffffffffff021916908373ffffffffffffffffffffffffffffffffffffffff1602179055505b80806001019150506109de565b505050565b60003411610af7576040517f08c379a000000000000000000000000000000000000000000000000000000000815260040180806020018281038252602c815260200180611215602c913960400191505060405180910390fd5b806004600082815260200190815260200160002060050160009054906101000a900460ff16610b8e576040517f08c379a00000000000000000000000000000000000000000000000000000000081526004018080602001828103825260138152602001807f6177617264206973206e6f74206163746976650000000000000000000000000081525060200191505060405180910390fd5b816002546004600083815260200190815260200160002060010154016004600083815260200190815260200160002060020154340110610c19576040517f08c379a000000000000000000000000000000000000000000000000000000000815260040180806020018281038252602f815260200180611241602f913960400191505060405180910390fd5b6004600084815260200190815260200160002060030160009054906101000a900473ffffffffffffffffffffffffffffffffffffffff1673ffffffffffffffffffffffffffffffffffffffff166004600085815260200190815260200160002060000160009054906101000a900473ffffffffffffffffffffffffffffffffffffffff1673ffffffffffffffffffffffffffffffffffffffff161415610d0a576040517f08c379a000000000000000000000000000000000000000000000000000000000815260040180806020018281038252604c8152602001806111c9604c913960600191505060405180910390fd5b3460046000858152602001908152602001600020600201600082825401925050819055503073ffffffffffffffffffffffffffffffffffffffff163373ffffffffffffffffffffffffffffffffffffffff167ff417b7482d24c4f3223dc0be19f69ae0f3f0cc6b37daaf6667c86d4272ca1e9e3486604051808381526020018281526020019250505060405180910390a3610da483611093565b505050565b816004600082815260200190815260200160002060050160009054906101000a900460ff16610e40576040517f08c379a00000000000000000000000000000000000000000000000000000000081526004018080602001828103825260138152602001807f6177617264206973206e6f74206163746976650000000000000000000000000081525060200191505060405180910390fd5b816004600085815260200190815260200160002060000160006101000a81548173ffffffffffffffffffffffffffffffffffffffff021916908373ffffffffffffffffffffffffffffffffffffffff160217905550505050565b600047905090565b60046020528060005260406000206000915090508060000160009054906101000a900473ffffffffffffffffffffffffffffffffffffffff16908060010154908060020154908060030160009054906101000a900473ffffffffffffffffffffffffffffffffffffffff16908060040154908060050160009054906101000a900460ff16905086565b60006040518060c001604052808473ffffffffffffffffffffffffffffffffffffffff1681526020018381526020013481526020018573ffffffffffffffffffffffffffffffffffffffff16815260200162015180600360009054906101000a900460ff1660ff160262ffffff1642018152602001600115158152509050806004600087815260200190815260200160002060008201518160000160006101000a81548173ffffffffffffffffffffffffffffffffffffffff021916908373ffffffffffffffffffffffffffffffffffffffff160217905550602082015181600101556040820151816002015560608201518160030160006101000a81548173ffffffffffffffffffffffffffffffffffffffff021916908373ffffffffffffffffffffffffffffffffffffffff1602179055506080820151816004015560a08201518160050160006101000a81548160ff0219169083151502179055509050505050505050565b6002546004600083815260200190815260200160002060020154600460008481526020019081526020016000206001015403101561118e573073ffffffffffffffffffffffffffffffffffffffff166004600083815260200190815260200160002060000160009054906101000a900473ffffffffffffffffffffffffffffffffffffffff1673ffffffffffffffffffffffffffffffffffffffff167fac3c955477f20f90987c3c2a8612c4ae1ceab685b94804e397ce0261ca546025600460008581526020019081526020016000206002015484604051808381526020018281526020019250505060405180910390a361118d81610454565b5b5056fe746869732061776172642068617320616c7265616479206265656e20616464656420746f2074686520736d61727420636f6e7472616374746869732061776172642063616e206e6f742061636365707420616e7920646f6e6174696f6e7320756e74696c20726563697069656e74206164647265737320686173206265656e20736574706c6561736520646f6e61746520616e20616d6f756e742067726561746572207468616e20302065746865727468697320646f6e6174696f6e206578636565647320617661696c61626c65206c696d69742072656d61696e696e67a2646970667358221220a2ffd24b8e334ca494e87bf3702fbd067e040041b1394864b81a3ce1b1a7385c64736f6c63430007060033",
  "immutableReferences": {},
  "source": "// SPDX-License-Identifier: MIT\npragma solidity >=0.7.0 <0.8.0;\n\n/**\n* @title Storage\n* @dev Store & retrieve value in a variable\n* BASE UNITS on ETHEREUM BC: wei\n* onlyOwner safety check - if we fund the recipient address setting, then we can set ourselves as the only ppl to modify the smart contract (securing our smart contract via admin access)\n* Methods/modifiers needed --------------------------------------------------------------------------------\n* set recipient address\n* check if recipient address is default or has been set\n* platform pays gas fee WHEN RECIPIENT SETS ADDRESS\n*\n* v11 --------------------------------------------------------------------------------------------\n* ToDo --------------------------------------------------------------------------------------------\n* check for sufficient balance on SC before deactivating an award (before distributing funds)\n\n*/\ncontract Nominate {\n   address public owner;\n   uint internal donationLimitValue;\n   uint internal range;\n   uint8 awardDurationDays;\n\n   constructor() {\n      owner = msg.sender;\n      donationLimitValue = 5 ether;\n      range = 0.005 ether;\n      awardDurationDays = 14;\n   }\n\n   //**struct are like models in dbs, we can make instances of the Award Struct each time a person is nominated\n   struct Award {\n      address payable recipientAddress;\n      uint donationLimit;\n      uint donationTotal;\n      address nominatorAddress;\n      uint expires;\n      bool active;\n   }\n\n   //**all awards will be our data structure. it is an object with they key as the award id, and the information of the award struct as the pair in key-pair\n  mapping(uint => Award) public allAwards;\n\n  function donateFunds (uint _awardId) public payable aboveMinimum() awardExist(_awardId) donationUnderLimit (_awardId)  {\n      require(allAwards[_awardId].recipientAddress != allAwards[_awardId].nominatorAddress, 'this award can not accept any donations until recipient address has been set');\n      // add donation amount to award\n      allAwards[_awardId].donationTotal += msg.value;\n\n      // log donation\n      emit Emit_Funds_Donated(msg.sender, address(this), msg.value, _awardId);\n\n      // check if award donations has reached amount limit\n      checkLimit(_awardId);\n  }\n  //Notes--This function is invoked only if we are creating a new award (nominator makes a nomination)\n  function startAwardAndDonate(uint _awardId, address payable _recipientAddress, uint _donationLimit) public payable aboveMinimum() {\n      require(allAwards[_awardId].active == false && allAwards[_awardId].recipientAddress == address(0), 'this award has already been added to the smart contract');\n\n      // createAwardStruct\n      //createAwardStruct(_awardId, _nominatorAddress, _recipientAddress);\n      createAwardStruct(_awardId, msg.sender, _recipientAddress, _donationLimit);\n\n      // log donation\n      emit Emit_Funds_Donated(msg.sender, address(this), msg.value, _awardId);\n\n      // check if award donations has reached amount limit\n      checkLimit(_awardId);\n  }\n  //Notes--This function is invoked to set the award winners address\n  function setRecipient(uint _awardId, address payable _recipientAddress) public awardExist(_awardId) {\n      //check to see if award id in the object if not reject donation….I.e. person tries to claim award after its expired\n      //modifier to check if there is an award\n      //set the award\n      allAwards[_awardId].recipientAddress = _recipientAddress;\n      //allAwards[_awardId].recipientAddress = msg.sender; // attached recipientAddress to .send()\n      // allAwards[_awardId].donationTotal += msg.value; // would an excess amount be sent to pay for gas fee?\n  }\n  function setRecipients(uint[] memory _awardIdList, address payable _recipientAddress) public {\n      for (uint i = 0; i < _awardIdList.length; i++) {\n          if (allAwards[_awardIdList[i]].active) {\n              allAwards[_awardIdList[i]].recipientAddress = _recipientAddress;\n          }\n      }\n  }\n  //claim reward idea?-when time runs out user logs in and presses claim my award-might\n  // expiration check made on app\n  // check for expiration on SC before invoking expireAward?\n  function expireAward(uint _awardId) public awardExist(_awardId) {\n      // onlyOwner modifier?\n      deactivateAward(_awardId);\n  }\n  // Helpper Functions -----------------------------------------------------------------------------------------------------\n  function checkLimit(uint _awardId) internal {\n      if (allAwards[_awardId].donationLimit - allAwards[_awardId].donationTotal < range) {\n          // emit goal reached\n          emit Award_Goal_Reached(allAwards[_awardId].recipientAddress, address(this), allAwards[_awardId].donationTotal, _awardId);\n          // end lifecycle of award\n          deactivateAward(_awardId);\n      }\n  }\n\nfunction deactivateAward(uint _awardId) public awardExist(_awardId) {\n      //donationTotal back to 0\n      uint amount = allAwards[_awardId].donationTotal;\n      allAwards[_awardId].donationTotal = 0;\n\n      // execute distribution of donations (amount sent to recipient == amount donated to respective award)\n      allAwards[_awardId].recipientAddress.transfer(amount);\n      // emit distribution\n      emit Award_Distributed(allAwards[_awardId].recipientAddress, address(this), allAwards[_awardId].donationTotal, _awardId);\n\n      // set struct property\n      allAwards[_awardId].active = false;\n      // emit award deactivated\n      emit Award_Deactivated(allAwards[_awardId].recipientAddress, address(this), allAwards[_awardId].donationTotal, _awardId);\n\n  }\n\n  function createAwardStruct(uint _awardId, address _nominatorAddress, address payable _recipientAddress, uint _donationLimit ) internal {\n      Award memory newAward = Award ({\n          recipientAddress: _recipientAddress,\n          donationLimit: _donationLimit,\n          donationTotal: msg.value,\n          nominatorAddress: _nominatorAddress,\n          expires: block.timestamp + awardDurationDays * 1 days,\n          active: true\n\n      });\n      allAwards[_awardId] = newAward;\n  }\n   function balanceOfContract() external view returns(uint) {\n       return address(this).balance;\n   }\n   receive() external payable {}\n   fallback() external {\n       revert('not actionable');\n   }\n  // Modifiers -----------------------------------------------------------------------------------------------------\n  // used by donateFunds -> make sure donation amount is NOT greater than available amount remaining\n  modifier donationUnderLimit (uint _awardId) {\n      // use msg.value?\n      require((msg.value + allAwards[_awardId].donationTotal) < (allAwards[_awardId].donationLimit + range), \"this donation exceeds available limit remaining\");\n      _;\n      // - allAwards[_awardId].donationTotal\n  }\n  //used by expireAward as a safety check to make sure that contract is expired before paying the recipient\n  modifier timeCheck (uint _awardId) {\n    require(block.timestamp > allAwards[_awardId].expires, \"this contract is not expired and payout will not happen\");\n    _;\n  }\n  modifier aboveMinimum () {\n      require( msg.value > 0 ether, \"please donate an amount greater than 0 ether\");\n      _;\n  }\n  // does award exist?\n  modifier awardExist (uint _awardId) {\n      require(allAwards[_awardId].active, 'award is not active');\n      _;\n  }\n\n  // Events Emitters -----------------------------------------------------------------------------------------------------\n  // the \"index\" keyword lets the log be filtered by those parameters\n  event Emit_Funds_Donated (\n      address indexed _from,\n      address indexed _contract,\n      uint _value,\n      uint _awardId\n  );\n  event Award_Goal_Reached (\n      address indexed _to,\n      address indexed _contract,\n      uint _value,\n      uint _awardId\n  );\n  event Award_Deactivated (\n      address indexed _to,\n      address indexed _contract,\n      uint _value,\n      uint _awardId\n  );\n  event Award_Distributed (\n      address indexed _to,\n      address indexed _contract,\n      uint _value,\n      uint _awardId\n  );\n}\n\n",
  "sourcePath": "/Users/dev/fullstack/capstone/contracts/Nominate.sol",
  "compiler": {
    "name": "solc",
    "version": "0.7.6+commit.7338295f.Emscripten.clang"
  },
  "schemaVersion": "3.3.4",
  "updatedAt": "2021-04-01T20:07:34.388Z",
  "networkType": "ethereum",
  "devdoc": {
    "details": "Store & retrieve value in a variable BASE UNITS on ETHEREUM BC: wei onlyOwner safety check - if we fund the recipient address setting, then we can set ourselves as the only ppl to modify the smart contract (securing our smart contract via admin access) Methods/modifiers needed -------------------------------------------------------------------------------- set recipient address check if recipient address is default or has been set platform pays gas fee WHEN RECIPIENT SETS ADDRESS v11 -------------------------------------------------------------------------------------------- ToDo -------------------------------------------------------------------------------------------- check for sufficient balance on SC before deactivating an award (before distributing funds)",
    "kind": "dev",
    "methods": {},
    "title": "Storage",
    "version": 1
  },
  "userdoc": {
    "kind": "user",
    "methods": {},
    "version": 1
  }
}